{
  "contractName": "EventTicketsV2",
  "abi": [
    {
      "constant": true,
      "inputs": [],
      "name": "owner",
      "outputs": [
        {
          "name": "",
          "type": "address"
        }
      ],
      "payable": false,
      "stateMutability": "view",
      "type": "function"
    },
    {
      "constant": true,
      "inputs": [],
      "name": "idGenerator",
      "outputs": [
        {
          "name": "",
          "type": "uint256"
        }
      ],
      "payable": false,
      "stateMutability": "view",
      "type": "function"
    },
    {
      "inputs": [],
      "payable": false,
      "stateMutability": "nonpayable",
      "type": "constructor"
    },
    {
      "anonymous": false,
      "inputs": [
        {
          "indexed": false,
          "name": "desc",
          "type": "string"
        },
        {
          "indexed": false,
          "name": "url",
          "type": "string"
        },
        {
          "indexed": false,
          "name": "ticketsAvailable",
          "type": "uint256"
        },
        {
          "indexed": false,
          "name": "eventId",
          "type": "uint256"
        }
      ],
      "name": "LogEventAdded",
      "type": "event"
    },
    {
      "anonymous": false,
      "inputs": [
        {
          "indexed": false,
          "name": "buyer",
          "type": "address"
        },
        {
          "indexed": false,
          "name": "eventId",
          "type": "uint256"
        },
        {
          "indexed": false,
          "name": "numTickets",
          "type": "uint256"
        }
      ],
      "name": "LogBuyTickets",
      "type": "event"
    },
    {
      "anonymous": false,
      "inputs": [
        {
          "indexed": false,
          "name": "accountRefunded",
          "type": "address"
        },
        {
          "indexed": false,
          "name": "eventId",
          "type": "uint256"
        },
        {
          "indexed": false,
          "name": "numTickets",
          "type": "uint256"
        }
      ],
      "name": "LogGetRefund",
      "type": "event"
    },
    {
      "anonymous": false,
      "inputs": [
        {
          "indexed": false,
          "name": "owner",
          "type": "address"
        },
        {
          "indexed": false,
          "name": "balance",
          "type": "uint256"
        },
        {
          "indexed": false,
          "name": "eventId",
          "type": "uint256"
        }
      ],
      "name": "LogEndSale",
      "type": "event"
    },
    {
      "constant": false,
      "inputs": [
        {
          "name": "_eventDescription",
          "type": "string"
        },
        {
          "name": "_url",
          "type": "string"
        },
        {
          "name": "_numTickets",
          "type": "uint256"
        }
      ],
      "name": "addEvent",
      "outputs": [
        {
          "name": "",
          "type": "uint256"
        }
      ],
      "payable": false,
      "stateMutability": "nonpayable",
      "type": "function"
    },
    {
      "constant": true,
      "inputs": [
        {
          "name": "eventId",
          "type": "uint256"
        }
      ],
      "name": "readEvent",
      "outputs": [
        {
          "name": "desc",
          "type": "string"
        },
        {
          "name": "url",
          "type": "string"
        },
        {
          "name": "ticketAvailable",
          "type": "uint256"
        },
        {
          "name": "sales",
          "type": "uint256"
        },
        {
          "name": "isOpen",
          "type": "bool"
        }
      ],
      "payable": false,
      "stateMutability": "view",
      "type": "function"
    },
    {
      "constant": false,
      "inputs": [
        {
          "name": "eventId",
          "type": "uint256"
        },
        {
          "name": "numTickets",
          "type": "uint256"
        }
      ],
      "name": "buyTickets",
      "outputs": [],
      "payable": true,
      "stateMutability": "payable",
      "type": "function"
    },
    {
      "constant": false,
      "inputs": [
        {
          "name": "eventId",
          "type": "uint256"
        }
      ],
      "name": "getRefund",
      "outputs": [],
      "payable": false,
      "stateMutability": "nonpayable",
      "type": "function"
    },
    {
      "constant": true,
      "inputs": [
        {
          "name": "eventId",
          "type": "uint256"
        }
      ],
      "name": "getBuyerNumberTickets",
      "outputs": [
        {
          "name": "",
          "type": "uint256"
        }
      ],
      "payable": false,
      "stateMutability": "view",
      "type": "function"
    },
    {
      "constant": false,
      "inputs": [
        {
          "name": "eventId",
          "type": "uint256"
        }
      ],
      "name": "endSale",
      "outputs": [],
      "payable": false,
      "stateMutability": "nonpayable",
      "type": "function"
    }
  ],
  "bytecode": "0x6080604052606460015534801561001557600080fd5b50336000806101000a81548173ffffffffffffffffffffffffffffffffffffffff021916908373ffffffffffffffffffffffffffffffffffffffff1602179055506000600281905550610efb8061006d6000396000f3fe60806040526004361061008e576000357c0100000000000000000000000000000000000000000000000000000000900463ffffffff16806304d1a846146100935780633ddedd38146100ce5780634da19f201461011d5780638627df461461029a5780638da5cb5b146102d2578063d2f0be9914610329578063e1ba30a914610364578063e7bd92b91461049d575b600080fd5b34801561009f57600080fd5b506100cc600480360360208110156100b657600080fd5b81019080803590602001909291905050506104c8565b005b3480156100da57600080fd5b50610107600480360360208110156100f157600080fd5b8101908080359060200190929190505050610643565b6040518082815260200191505060405180910390f35b34801561012957600080fd5b506102846004803603606081101561014057600080fd5b810190808035906020019064010000000081111561015d57600080fd5b82018360208201111561016f57600080fd5b8035906020019184600183028401116401000000008311171561019157600080fd5b91908080601f016020809104026020016040519081016040528093929190818152602001838380828437600081840152601f19601f820116905080830192505050505050509192919290803590602001906401000000008111156101f457600080fd5b82018360208201111561020657600080fd5b8035906020019184600183028401116401000000008311171561022857600080fd5b91908080601f016020809104026020016040519081016040528093929190818152602001838380828437600081840152601f19601f820116905080830192505050505050509192919290803590602001909291905050506106a0565b6040518082815260200191505060405180910390f35b6102d0600480360360408110156102b057600080fd5b8101908080359060200190929190803590602001909291905050506108e9565b005b3480156102de57600080fd5b506102e7610abd565b604051808273ffffffffffffffffffffffffffffffffffffffff1673ffffffffffffffffffffffffffffffffffffffff16815260200191505060405180910390f35b34801561033557600080fd5b506103626004803603602081101561034c57600080fd5b8101908080359060200190929190505050610ae2565b005b34801561037057600080fd5b5061039d6004803603602081101561038757600080fd5b8101908080359060200190929190505050610c53565b60405180806020018060200186815260200185815260200184151515158152602001838103835288818151815260200191508051906020019080838360005b838110156103f75780820151818401526020810190506103dc565b50505050905090810190601f1680156104245780820380516001836020036101000a031916815260200191505b50838103825287818151815260200191508051906020019080838360005b8381101561045d578082015181840152602081019050610442565b50505050905090810190601f16801561048a5780820380516001836020036101000a031916815260200191505b5097505050505050505060405180910390f35b3480156104a957600080fd5b506104b2610e24565b6040518082815260200191505060405180910390f35b6000809054906101000a900473ffffffffffffffffffffffffffffffffffffffff1673ffffffffffffffffffffffffffffffffffffffff163373ffffffffffffffffffffffffffffffffffffffff1614151561052357600080fd5b60006003600083815260200190815260200160002060050160006101000a81548160ff0219169083151502179055503373ffffffffffffffffffffffffffffffffffffffff166108fc6001546003600085815260200190815260200160002060030154029081150290604051600060405180830381858888f193505050501580156105b2573d6000803e3d6000fd5b507f6497e6dff32a753fe6b3a2b3430e5f86d65c6e35cf360d52eb3494711d7d7a1c3360015460036000858152602001908152602001600020600301540283604051808473ffffffffffffffffffffffffffffffffffffffff1673ffffffffffffffffffffffffffffffffffffffff168152602001838152602001828152602001935050505060405180910390a150565b60006003600083815260200190815260200160002060040160003373ffffffffffffffffffffffffffffffffffffffff1673ffffffffffffffffffffffffffffffffffffffff168152602001908152602001600020549050919050565b60008060009054906101000a900473ffffffffffffffffffffffffffffffffffffffff1673ffffffffffffffffffffffffffffffffffffffff163373ffffffffffffffffffffffffffffffffffffffff161415156106fd57600080fd5b6000600254905060a060405190810160405280868152602001858152602001848152602001600081526020016001151581525060036000838152602001908152602001600020600082015181600001908051906020019061075f929190610e2a565b50602082015181600101908051906020019061077c929190610e2a565b50604082015181600201556060820151816003015560808201518160050160006101000a81548160ff02191690831515021790555090505060016002600082825401925050819055507f7d1d82c13762b51876068c852c5d404d0fa38fb615c14eebefafb60bdb4bd1b285858584604051808060200180602001858152602001848152602001838103835287818151815260200191508051906020019080838360005b8381101561083a57808201518184015260208101905061081f565b50505050905090810190601f1680156108675780820380516001836020036101000a031916815260200191505b50838103825286818151815260200191508051906020019080838360005b838110156108a0578082015181840152602081019050610885565b50505050905090810190601f1680156108cd5780820380516001836020036101000a031916815260200191505b50965050505050505060405180910390a1809150509392505050565b6003600083815260200190815260200160002060050160009054906101000a900460ff16151561091857600080fd5b3481600154021115151561092b57600080fd5b8060036000848152602001908152602001600020600201541015151561095057600080fd5b806003600084815260200190815260200160002060040160003373ffffffffffffffffffffffffffffffffffffffff1673ffffffffffffffffffffffffffffffffffffffff168152602001908152602001600020600082825401925050819055508060036000848152602001908152602001600020600301600082825401925050819055508060036000848152602001908152602001600020600201600082825403925050819055503373ffffffffffffffffffffffffffffffffffffffff166108fc348360015402039081150290604051600060405180830381858888f19350505050158015610a45573d6000803e3d6000fd5b507f15827fa78fedf80f93aa72ce61e705b1362cab60ae596b1bb327076fc3856c24338383604051808473ffffffffffffffffffffffffffffffffffffffff1673ffffffffffffffffffffffffffffffffffffffff168152602001838152602001828152602001935050505060405180910390a15050565b6000809054906101000a900473ffffffffffffffffffffffffffffffffffffffff1681565b60006003600083815260200190815260200160002060040160003373ffffffffffffffffffffffffffffffffffffffff1673ffffffffffffffffffffffffffffffffffffffff168152602001908152602001600020549050600081111515610b4957600080fd5b3373ffffffffffffffffffffffffffffffffffffffff166108fc60015483029081150290604051600060405180830381858888f19350505050158015610b93573d6000803e3d6000fd5b508060036000848152602001908152602001600020600301600082825403925050819055508060036000848152602001908152602001600020600201600082825401925050819055507f73ebb2050cb3ee6869929e7a26925e92e201f14902e155037f1f90af931b3233338383604051808473ffffffffffffffffffffffffffffffffffffffff1673ffffffffffffffffffffffffffffffffffffffff168152602001838152602001828152602001935050505060405180910390a15050565b606080600080600060036000878152602001908152602001600020600001600360008881526020019081526020016000206001016003600089815260200190815260200160002060020154600360008a815260200190815260200160002060030154600360008b815260200190815260200160002060050160009054906101000a900460ff16848054600181600116156101000203166002900480601f016020809104026020016040519081016040528092919081815260200182805460018160011615610100020316600290048015610d6e5780601f10610d4357610100808354040283529160200191610d6e565b820191906000526020600020905b815481529060010190602001808311610d5157829003601f168201915b50505050509450838054600181600116156101000203166002900480601f016020809104026020016040519081016040528092919081815260200182805460018160011615610100020316600290048015610e0a5780601f10610ddf57610100808354040283529160200191610e0a565b820191906000526020600020905b815481529060010190602001808311610ded57829003601f168201915b505050505093509450945094509450945091939590929450565b60025481565b828054600181600116156101000203166002900490600052602060002090601f016020900481019282601f10610e6b57805160ff1916838001178555610e99565b82800160010185558215610e99579182015b82811115610e98578251825591602001919060010190610e7d565b5b509050610ea69190610eaa565b5090565b610ecc91905b80821115610ec8576000816000905550600101610eb0565b5090565b9056fea165627a7a7230582095fcb8c656269ba07a2aef9b0b4623f32a0ecfa09e0495ac79ded9c6703b18680029",
  "source": "pragma solidity ^0.5.0;\n\n    /*\n        The EventTicketsV2 contract keeps track of the details and ticket sales of multiple events.\n     */\ncontract EventTicketsV2 {\n\n    /*\n        Define an public owner variable. Set it to the creator of the contract when it is initialized.\n    */\n    address payable public owner;\n\n    uint   PRICE_TICKET = 100 wei;\n\n    /*\n        Create a variable to keep track of the event ID numbers.\n    */\n    uint public idGenerator;\n\n    /*\n        Define an Event struct, similar to the V1 of this contract.\n        The struct has 6 fields: description, website (URL), totalTickets, sales, buyers, and isOpen.\n        Choose the appropriate variable type for each field.\n        The \"buyers\" field should keep track of addresses and how many tickets each buyer purchases.\n    */\n    struct Event {\n        string description;\n        string website;\n        uint totalTickets;\n        uint sales;\n        mapping(address => uint) buyers;\n        bool isOpen;\n    }\n    /*\n        Create a mapping to keep track of the events.\n        The mapping key is an integer, the value is an Event struct.\n        Call the mapping \"events\".\n    */\n    mapping(uint => Event) events;\n\n    event LogEventAdded(string desc, string url, uint ticketsAvailable, uint eventId);\n    event LogBuyTickets(address buyer, uint eventId, uint numTickets);\n    event LogGetRefund(address accountRefunded, uint eventId, uint numTickets);\n    event LogEndSale(address owner, uint balance, uint eventId);\n    \n    /*\n        Create a modifier that throws an error if the msg.sender is not the owner.\n    */\n    modifier validateOwner() { require(msg.sender == owner); _;}\n    \n    constructor() public {\n        owner = msg.sender;\n        idGenerator = 0;\n    }\n    /*\n        Define a function called addEvent().\n        This function takes 3 parameters, an event description, a URL, and a number of tickets.\n        Only the contract owner should be able to call this function.\n        In the function:\n            - Set the description, URL and ticket number in a new event.\n            - set the event to open\n            - set an event ID\n            - increment the ID\n            - emit the appropriate event\n            - return the event's ID\n    */\n    function addEvent(string memory _eventDescription, string memory _url, uint _numTickets)\n    public\n    validateOwner()\n    returns(uint)\n    {\n        uint eventId = idGenerator;\n        events[eventId] = Event({\n            description: _eventDescription,\n            website: _url,\n            totalTickets: _numTickets,\n            sales: 0,\n            isOpen: true\n        });\n        idGenerator += 1;\n        \n        emit LogEventAdded(_eventDescription, _url, _numTickets, eventId);\n        return eventId;\n    }\n    /*\n        Define a function called readEvent().\n        This function takes one parameter, the event ID.\n        The function returns information about the event this order:\n            1. description\n            2. URL\n            3. tickets available\n            4. sales\n            5. isOpen\n    */\n    function readEvent(uint eventId) \n    public\n    view\n    returns(string memory desc, string memory url, uint ticketAvailable, uint sales, bool isOpen)\n    {    \n        return(events[eventId].description, events[eventId].website, events[eventId].totalTickets, events[eventId].sales, events[eventId].isOpen);\n    }\n    /*\n        Define a function called buyTickets().\n        This function allows users to buy tickets for a specific event.\n        This function takes 2 parameters, an event ID and a number of tickets.\n        The function checks:\n            - that the event sales are open\n            - that the transaction value is sufficient to purchase the number of tickets\n            - that there are enough tickets available to complete the purchase\n        The function:\n            - increments the purchasers ticket count\n            - increments the ticket sale count\n            - refunds any surplus value sent\n            - emits the appropriate event\n    */\n    function buyTickets(uint eventId, uint numTickets)\n    public\n    payable\n    {    \n        require(events[eventId].isOpen);\n        require(PRICE_TICKET * numTickets <= msg.value);\n        require(events[eventId].totalTickets >= numTickets);\n\n        events[eventId].buyers[msg.sender] += numTickets;\n        events[eventId].sales += numTickets;\n        events[eventId].totalTickets -= numTickets;\n        msg.sender.transfer(PRICE_TICKET * numTickets - msg.value);\n\n        emit LogBuyTickets(msg.sender, eventId, numTickets);\n    }\n    /*\n        Define a function called getRefund().\n        This function allows users to request a refund for a specific event.\n        This function takes one parameter, the event ID.\n        TODO:\n            - check that a user has purchased tickets for the event\n            - remove refunded tickets from the sold count\n            - send appropriate value to the refund requester\n            - emit the appropriate event\n    */\n    function getRefund(uint eventId) public\n    {        \n        uint numTickets = events[eventId].buyers[msg.sender];\n        require(numTickets > 0);\n\n        msg.sender.transfer(numTickets * PRICE_TICKET);\n        events[eventId].sales -= numTickets;\n        events[eventId].totalTickets += numTickets;\n\n        emit LogGetRefund(msg.sender, eventId, numTickets);\n    }\n    /*\n        Define a function called getBuyerNumberTickets()\n        This function takes one parameter, an event ID\n        This function returns a uint, the number of tickets that the msg.sender has purchased.\n    */\n    function getBuyerNumberTickets(uint eventId) public view returns(uint) {\n        return events[eventId].buyers[msg.sender];\n    }\n    /*\n        Define a function called endSale()\n        This function takes one parameter, the event ID\n        Only the contract owner can call this function\n        TODO:\n            - close event sales\n            - transfer the balance from those event sales to the contract owner\n            - emit the appropriate event\n    */\n    function endSale(uint eventId)\n    public\n    validateOwner()\n    {      \n        events[eventId].isOpen = false;\n        msg.sender.transfer(events[eventId].sales * PRICE_TICKET);\n\n        emit LogEndSale(msg.sender, events[eventId].sales * PRICE_TICKET, eventId);\n    }\n}\n",
  "sourcePath": "/Users/sarah/event-ticket-exercise-aparol/contracts/EventTicketsV2.sol",
  "compiler": {
    "name": "solc",
    "version": "0.5.0+commit.1d4f565a.Emscripten.clang"
  },
  "schemaVersion": "3.0.9",
  "updatedAt": "2019-11-16T23:34:07.046Z",
  "devdoc": {
    "methods": {}
  },
  "userdoc": {
    "methods": {}
  }
}